:100000000C942A000C9449000C94FB000C944700BB
:100010000C9447000C9447000C9447000C94470044
:100020000C9447000C9447000C9447000C94470034
:100030000C9447000C9447000C9447000C94470024
:100040000C9447000C9447000C94C1010C94470099
:100050000C94470011241FBECFE5D4E0DEBFCDBF16
:1000600011E0A0E6B0E0E6E2FFE002C005900D92EC
:10007000A834B107D9F721E0A8E4B1E001C01D928E
:10008000A036B207E1F70E945B020C9491070C9432
:1000900000001F920F920FB60F9211242F933F93DF
:1000A0004F935F936F937F938F939F93AF93BF9380
:1000B000EF93FF93879B46C0809149018F93809176
:1000C00048018F93809165008F93809164008F9396
:1000D00084E790E09F938F930E94A1048091480150
:1000E0009091490101960F900F900F900F900F90F3
:1000F0000F908930910529F0909349018093480130
:100100000DC01092490110924801809164009091B5
:100110006500019690936500809364008CED9FEFDD
:100120000197F1F78CED9FEF0197F1F78CED9FEFC1
:100130000197F1F78CED9FEF0197F1F78CED9FEFB1
:100140000197F1F7879946C0809161008F93809164
:1001500060008F93809163008F93809162008F93F2
:1001600089E890E09F938F930E94A10480916000A2
:100170009091610001960F900F900F900F900F904B
:100180000F908930910529F0909361008093600071
:100190000DC01092610010926000809162009091F9
:1001A0006300019690936300809362008CED9FEF53
:1001B0000197F1F78CED9FEF0197F1F78CED9FEF31
:1001C0000197F1F78CED9FEF0197F1F78CED9FEF21
:1001D0000197F1F7FF91EF91BF91AF919F918F91AF
:1001E0007F916F915F914F913F912F910F900FBE33
:1001F0000F901F9018951F920F920FB60F92112417
:100200002F933F934F935F936F937F938F939F931E
:10021000AF93BF93EF93FF93879B50C080914801AA
:1002200090914901892B79F489E090E090934901FC
:1002300080934801809164009091650001979093AC
:100240006500809364008091500190915101892B49
:10025000C1F4809149018F93809148018F938091DF
:1002600065008F93809164008F9384E790E09F9363
:100270008F930E94A1040F900F900F900F900F90FA
:100280000F90809148019091490101979093490105
:10029000809348018CED9FEF0197F1F78CED9FEF74
:1002A0000197F1F78CED9FEF0197F1F78CED9FEF40
:1002B0000197F1F78CED9FEF0197F1F7879950C007
:1002C0008091600090916100892B79F489E090E041
:1002D0009093610080936000809162009091630030
:1002E00001979093630080936200809150019091F8
:1002F0005101892BC1F4809161008F93809160003E
:100300008F93809163008F93809162008F938EE929
:1003100090E09F938F930E94A1040F900F900F90F5
:100320000F900F900F908091600090916100019765
:1003300090936100809360008CED9FEF0197F1F73F
:100340008CED9FEF0197F1F78CED9FEF0197F1F79F
:100350008CED9FEF0197F1F78CED9FEF0197F1F78F
:10036000FF91EF91BF91AF919F918F917F916F918D
:100370005F914F913F912F910F900FBE0F901F9063
:1003800018951F920F920FB60F9211242F933F933F
:100390004F935F936F937F938F939F93AF93BF938D
:1003A000EF93FF93809149018F93809148018F9340
:1003B000809165008F93809164008F9383EB90E030
:1003C0009F938F930E94A104809155018F938091F8
:1003D00054018F93809159018F93809158018F938D
:1003E00086EC90E09F938F930E94A10480914D0131
:1003F0008F9380914C018F93809157018F938091BF
:1004000056018F938DED90E09F938F930E94A104EE
:100410008CED9FEF0197F1F78CED9FEF0197F1F7CE
:100420008CED9FEF0197F1F78CED9FEF0197F1F7BE
:100430008CED9FEF0197F1F78DB79EB742960FB6FF
:10044000F8949EBF0FBE8DBFFF91EF91BF91AF910A
:100450009F918F917F916F915F914F913F912F91DC
:100460000F900FBE0F901F90189590BD89B988E12D
:100470008AB986E880BD08955D9BFECF8CB908954A
:10048000CF93C82F8A3019F48DE00E943C028C2F44
:100490000E943C0280E090E0CF91089597B1877070
:1004A000982B97B9369A3699FECF349BFECF349A63
:1004B00084B195B1089580E487B987E886B980ED65
:1004C00081BB8DE082BB17BA87E088BB85B7837F8D
:1004D00085BF8BB780648BBF8BB780688BBF8BB7B2
:1004E00080628BBF85B78C7F85BF84B78F7B84BFCD
:1004F000789486E690E090935D0180935C0183E3BD
:1005000090E00E94350284EF90E00E94B50487E0FD
:1005100091E00E94B50487E291E00E94B504109238
:100520004F0110924E016894662466F80F2EF7E88A
:100530007F2EF02DCCEDDFEF0F2EFAE0CF2ED12C59
:10054000F02D67B876B882E00E944E027C01CE01A1
:100550000197F1F783E00E944E029093530180933C
:10056000520187E00E944E022091520130915301C6
:100570008C01021B130BBC016E197F0980E090E017
:100580000E9488032EEA37E449E850E40E94EE0313
:1005900020E030E040E85AE30E94EE034B015C01AA
:1005A0000E94570370935901609358012CE9260368
:1005B0007001279FF00C112420E030E048EC52E459
:1005C000C501B4010E94EE030E945C036E0D7F1D05
:1005D0007093550160935401C801880F991F000F53
:1005E000111F000F111F000F111F080F191F1123DA
:1005F00014F40F5F1F4F15950795C801B6010E94AF
:10060000790470934B0160934A01882777FD8095A8
:10061000982F0E948A032EEA37E449E850E40E94AA
:10062000EE0320E030E040E85AE30E94EE030E942F
:10063000570370935701609356012CE9260370010C
:10064000279FF00C1124B801882777FD8095982FFB
:100650000E948A032EEA37E449E850E40E94EE0340
:1006600020E030E040E85AE30E94EE0320E030E072
:1006700040E251E40E94EE030E945C036E0D7F1D78
:1006800070934D0160934C01CE010197F1F7CE01BB
:100690000197F1F7CE010197F1F7CE010197F1F73C
:1006A000CE010197F1F7CE010197F1F74ACF04D0BF
:1006B0006894B1118DC0089570D088F09F5790F064
:1006C000B92F9927B751A0F0D1F0660F771F881F77
:1006D000991F1AF0BA95C9F712C0B13081F077D0DE
:1006E000B1E0089574C0672F782F8827B85F39F07C
:1006F000B93FCCF3869577956795B395D9F73EF4D6
:1007000090958095709561957F4F8F4F9F4F08957D
:10071000E89409C097FB3EF490958095709561959B
:100720007F4F8F4F9F4F9923A9F0F92F96E9BB2751
:100730009395F695879577956795B795F111F8CFCD
:10074000FAF4BB0F11F460FF1BC06F5F7F4F8F4F38
:100750009F4F16C0882311F096E911C0772321F02E
:100760009EE8872F762F05C0662371F096E8862FC6
:1007700070E060E02AF09A95660F771F881FDAF71D
:10078000880F9695879597F9089557FD9058440FCF
:10079000551F59F05F3F71F04795880F97FB991FE0
:1007A00061F09F3F79F0879508951216130614069D
:1007B000551FF2CF4695F1DF08C01616170618062A
:1007C000991FF1CF86957105610508940895E89405
:1007D000BB2766277727CB0197F908950BD078C000
:1007E00069D028F06ED018F0952309F05AC05FC088
:1007F0001124EECFCADFA0F3959FD1F3950F50E0FF
:10080000551F629FF001729FBB27F00DB11D639FC2
:10081000AA27F00DB11DAA1F649F6627B00DA11D68
:10082000661F829F2227B00DA11D621F739FB00D0E
:10083000A11D621F839FA00D611D221F749F33277E
:10084000A00D611D231F849F600D211D822F762F17
:100850006A2F11249F5750408AF0E1F088234AF014
:10086000EE0FFF1FBB1F661F771F881F9150504060
:10087000A9F79E3F510570F014C0AACF5F3FECF37B
:10088000983EDCF3869577956795B795F795E7954C
:100890009F5FC1F7FE2B880F911D9695879597F95D
:1008A000089597F99F6780E870E060E008959FEFF2
:1008B00080EC089500240A941616170618060906F7
:1008C000089500240A9412161306140605060895C6
:1008D000092E0394000C11F4882352F0BB0F40F44E
:1008E000BF2B11F460FF04C06F5F7F4F8F4F9F4F8E
:1008F000089597FB072E16F4009407D077FD09D0D2
:100900000E948D0407FC05D03EF4909581959F4F81
:100910000895709561957F4F0895AA1BBB1B51E107
:1009200007C0AA1FBB1FA617B70710F0A61BB70B5F
:10093000881F991F5A95A9F780959095BC01CD0104
:100940000895A0E0B0E0E7EAF4E00C946A07FE0145
:10095000359661917191AF0180915C0190915D013B
:100960000E94E204E2E00C9486070F931F93CF935A
:10097000DF93E0915C01F0915D01238121FF1BC0B9
:10098000EC0100E010E0899160915C0170915D01E3
:10099000DB011896ED91FC911997882331F00995A8
:1009A000892B89F30FEF1FEFEECF8AE00995892B92
:1009B00011F4C80102C08FEF9FEFDF91CF911F911B
:1009C0000F910895ACE0B0E0E8EEF4E00C945A0723
:1009D0007C016B018A01FC0117821682838181FFF1
:1009E000BDC1CE0101964C01F7019381F60193FD43
:1009F000859193FF81916F01882309F4ABC1853202
:100A000039F493FD859193FF81916F01853229F42B
:100A1000B70190E00E94CA06E7CF512C312C20E0AC
:100A20002032A0F48B3269F030F4803259F08332F6
:100A300069F420612CC08D3239F0803339F42160A3
:100A400026C02260246023C0286021C027FD27C063
:100A500030ED380F3A3078F426FF06C0FAE05F9E9A
:100A6000300D1124532E13C08AE0389E300D11240E
:100A7000332E20620CC08E3221F426FD6BC120641F
:100A800006C08C3611F4206802C0883641F4F601A5
:100A900093FD859193FF81916F018111C1CF982FB3
:100AA0009F7D9554933028F40C5F1F4FFFE3F9832B
:100AB0000DC0833631F0833771F0833509F05BC0A8
:100AC00022C0F801808189830E5F1F4F4424439424
:100AD000512C540115C03801F2E06F0E711CF80161
:100AE000A080B18026FF03C0652D70E002C06FEFCB
:100AF0007FEFC5012C870E94BF062C0183012C8546
:100B00002F77222E17C03801F2E06F0E711CF8010A
:100B1000A080B18026FF03C0652D70E002C06FEF9A
:100B20007FEFC5012C870E94B4062C012C8520681C
:100B3000222E830123FC1BC0832D90E0481659060A
:100B4000B0F4B70180E290E00E94CA063A94F4CF74
:100B5000F50127FC859127FE81915F01B70190E0A7
:100B60000E94CA0631103A94F1E04F1A510841141C
:100B7000510471F7E5C0843611F0893639F5F80172
:100B800027FF07C060817181828193810C5F1F4FB5
:100B900008C060817181882777FD8095982F0E5F4E
:100BA0001F4F2F76B22E97FF09C0909580957095B4
:100BB00061957F4F8F4F9F4F2068B22E2AE030E023
:100BC000A4010E94FC06A82EA81844C0853729F469
:100BD0002F7EB22E2AE030E025C0F22FF97FBF2E03
:100BE0008F36C1F018F4883579F0B4C0803719F029
:100BF000883721F0AFC02F2F2061B22EB4FE0DC078
:100C00008B2D8460B82E09C024FF0AC09F2F9660E8
:100C1000B92E06C028E030E005C020E130E002C077
:100C200020E132E0F801B7FE07C060817181828166
:100C300093810C5F1F4F06C06081718180E090E05E
:100C40000E5F1F4FA4010E94FC06A82EA818FB2DC2
:100C5000FF77BF2EB6FE0BC02B2D2E7FA51450F4B0
:100C6000B4FE0AC0B2FC08C02B2D2E7E05C07A2C23
:100C70002B2D03C07A2C01C0752C24FF0DC0FE0162
:100C8000EA0DF11D8081803311F4297E09C022FF15
:100C900006C07394739404C0822F867809F073940D
:100CA00023FD13C020FF06C05A2C731418F4530CF4
:100CB0005718732C731468F4B70180E290E02C8706
:100CC0000E94CA0673942C85F5CF731410F437185C
:100CD00001C0312C24FF12C0B70180E390E02C87C3
:100CE0000E94CA062C8522FF17C021FF03C088E599
:100CF00090E002C088E790E0B7010CC0822F8678B0
:100D000059F021FD02C080E201C08BE227FD8DE297
:100D1000B70190E00E94CA06A51438F4B70180E339
:100D200090E00E94CA065A94F7CFAA94F401EA0D03
:100D3000F11D8081B70190E00E94CA06A110F5CF95
:100D4000332009F451CEB70180E290E00E94CA0638
:100D50003A94F6CFF7018681978102C08FEF9FEF1B
:100D60002C96E2E10C947607FC01059061507040EE
:100D70000110D8F7809590958E0F9F1F0895FC0164
:100D80006150704001900110D8F7809590958E0FBA
:100D90009F1F08950F931F93CF93DF93182F092F51
:100DA000EB018B8181FD03C08FEF9FEF20C082FF9D
:100DB00010C04E815F812C813D81421753077CF426
:100DC000E881F9819F012F5F3F4F3983288310838A
:100DD00006C0E885F985812F0995892B29F72E8191
:100DE0003F812F5F3F4F3F832E83812F902FDF91D5
:100DF000CF911F910F910895FA01AA27283051F140
:100E0000203181F1E8946F936E7F6E5F7F4F8F4F3B
:100E10009F4FAF4FB1E03ED0B4E03CD0670F781F9A
:100E2000891F9A1FA11D680F791F8A1F911DA11D7F
:100E30006A0F711D811D911DA11D20D009F46894B8
:100E40003F912AE0269F11243019305D3193DEF660
:100E5000CF010895462F4770405D4193B3E00FD016
:100E6000C9F7F6CF462F4F70405D4A3318F0495D01
:100E700031FD4052419302D0A9F7EACFB4E0A695E4
:100E80009795879577956795BA95C9F70097610506
:100E9000710508959B01AC010A2E0694579547955C
:100EA00037952795BA95C9F7620F731F841F951F51
:100EB000A01D08952F923F924F925F926F927F9262
:100EC0008F929F92AF92BF92CF92DF92EF92FF925A
:100ED0000F931F93CF93DF93CDB7DEB7CA1BDB0B06
:100EE0000FB6F894DEBF0FBECDBF09942A883988AB
:100EF00048885F846E847D848C849B84AA84B984B2
:100F0000C884DF80EE80FD800C811B81AA81B981BD
:100F1000CE0FD11D0FB6F894DEBF0FBECDBFED01D1
:060F20000895F894FFCFD4
:100F2600080001000400000000020000000040026A
:100F360000000000766F6C74616765206C696D69EE
:100F4600743D25642E25640A0063757272656E749D
:100F5600206C696D69742025642E25640A0063750A
:100F66007272656E74206C696D69743D25642E25F8
:100F7600640A0073657420766F6C7461676520255A
:100F8600642E25640A006261747465727920766F36
:100F96006C746167652025642E25640A006261749D
:100FA600746572792063757272656E742025642E7D
:100FB60025640A00202020202020202020202057E1
:100FC600454C434F4D4500534D41525420424154E8
:100FD60054455259204D414E4147454D454E5420AA
:100FE60053595354454D00736574207468652076D3
:100FF6006F6C7461676520616E64206375727265DB
:081006006E74206C696D74002A
:00000001FF
